:1000000060200020C90B0000C50B0000C50B0000DC
:1000100000000000000000000000000000000000E0
:10002000000000000000000000000000C50B000000
:100030000000000000000000C50B0000C50B000020
:10004000C50B0000C50B0000C50B0000C50B000070
:10005000C50B0000C50B0000C50B0000C50B000060
:10006000C50B00006105000071050000810500005E
:1000700091050000A1050000B1050000C50B0000BE
:10008000C50B0000C50B0000C50B0000C50B000030
:10009000C50B00000000000000000000C50B0000C0
:1000A000C50B0000C50B0000C50B0000C50B000010
:1000B0000000000010B5064C2378002B07D1054B3B
:1000C000002B02D0044800E000BF0123237010BDC4
:1000D0000C00002000000000DC190000084B10B5E7
:1000E000002B03D00749084800E000BF0748036819
:1000F000002B00D110BD064B002BFBD09847F9E731
:100100000000000010000020DC190000DC190000D5
:100110000000000010B5034B984783001818C30077
:10012000181A10BD690E000030B583B001AC012370
:1001300063700022A270237021000220104DA84796
:1001400021000320A84721000420A8472100052002
:10015000A84721000620A84721000720A847210022
:100160000820A84721000920A84721000B20A84704
:1001700021000A20A84721002A20A84703B030BD4B
:10018000C105000070B5C30703D50422284B9A614E
:1001900002E00422264B5A61830703D50822244B30
:1001A0009A6102E00822224B5A61430703D51022CC
:1001B0001F4B9A6102E010221D4B5A61030703D5C1
:1001C00020221B4B9A6102E02022194B5A61C30680
:1001D00003D54022164B9A6102E04022144B5A612B
:1001E000830603D58022124B9A6102E08022104BD5
:1001F0005A61430604D5802252000D4B9A6103E0F8
:10020000802252000A4B5A61C00904D08022920019
:10021000074B9A6103E080229200054B5A61044C1F
:100220008025ED00A5610120024B9847656170BDF6
:10023000004400410905000070B5040001200A4D8A
:10024000A847200EA847200CC0B2A847200AC0B279
:10025000A847E0B2A847054C80252D01A5610120E3
:10026000034B9847656170BD850100000044004163
:100270000905000070B5C30704D5802212022F4B78
:100280009A6103E0802212022C4B5A61830704D545
:1002900080225202294B9A6103E080225202274BAE
:1002A0005A61430704D580229202244B9A6103E0ED
:1002B00080229202214B5A61030704D58022D20288
:1002C0001E4B9A6103E08022D2021C4B5A61C30686
:1002D00004D580221203194B9A6103E08022120395
:1002E000164B5A61830604D580225203134B9A6140
:1002F00003E080225203114B5A61430604D5802249
:1003000092030E4B9A6103E0802292030B4B5A61D9
:10031000C00904D08022D203084B9A6103E08022F6
:10032000D203064B5A61054D80263604AE61022089
:10033000034CA0476E610220A04770BD00440041FD
:1003400035050000F8B5C30704D580221202314BF1
:100350009A6103E0802212022E4B5A61830704D572
:10036000802252022B4B9A6103E080225202294BD9
:100370005A61430704D580229202264B9A6103E01A
:1003800080229202234B5A61030704D58022D202B5
:10039000204B9A6103E08022D2021E4B5A61C306B1
:1003A00004D5802212031B4B9A6103E080221203C2
:1003B000184B5A61830604D580225203154B9A616B
:1003C00003E080225203134B5A61430604D5802276
:1003D0009203104B9A6103E0802292030D4B5A6105
:1003E000C00904D08022D2030A4B9A6103E0802224
:1003F000D203084B5A61074C80273F04A76180262F
:10040000B604A6610220044DA84767616661022018
:10041000A847F8BD004400413505000070B5040050
:100420000078002805D0034DA84701342078002823
:10043000FAD170BD4503000030B583B001AC012393
:1004400063700022A270237021000F20104DA84776
:1004500021001020A84721001120A84721001220C8
:10046000A84721001320A84721001420A8472100F5
:100470001520A84721001620A84721001720A847CB
:1004800021001820A84721001920A84703B030BD3B
:10049000C105000070B5094B98473820084CA047AB
:1004A0000620084DA8470E20A0470620A847012097
:1004B000A0470620A8478020A04770BD390400004F
:1004C000750200003505000070B50020084B984704
:1004D0000500084CFA218900A047074B186007491E
:1004E0002800A047064B18600522064B1A6070BD15
:1004F00085090000510D00000400002040420F005B
:100500000000002010E000E030B5084B1C68084AED
:1005100000258021490206E0002C04D0546095603B
:1005200013680B42FCD00138F6D230BD0000002029
:1005300010E000E030B5084B1C68084A0025802117
:10054000490206E0002C04D05460956013680B4209
:10055000FCD00138F6D230BD0400002010E000E0ED
:1005600010B5024B1B680020984710BD28000020E2
:1005700010B5024B5B680120984710BD2800002091
:1005800010B5024B9B680220984710BD2800002040
:1005900010B5024BDB680320984710BD28000020EF
:1005A00010B5024B1B690420984710BD280000209D
:1005B00010B5024B5B690520984710BD280000204C
:1005C00000B583B001AB80221A700A785A704A785D
:1005D0009A708A78DA701900014B984703B000BD11
:1005E000650B00007047C0460C4B1B68002B10D1F8
:1005F000EFF31083002B09D172B6BFF35F8F002297
:10060000074B1A700132074B1A7002E00022054BAB
:100610001A70024A136801331360704740000020CB
:100620000800002044000020084B1A68013A1A60B4
:100630001B68002B09D1064B1B78002B05D001222B
:10064000044B1A70BFF35F8F62B670474000002002
:10065000440000200800002010B5082803D88000BE
:100660001B4B1B589F46002030E01A4B18692DE0A9
:10067000194B1B6A9B059B0F1848D84026E0154B69
:10068000586923E0134B1B68022018401ED0124902
:100690001022CB681A42FCD00E4B1B685B0714D5A6
:1006A00000200F4B98470B4B9B681B041B0C5843B7
:1006B0000CE05023084AD35C00205B0706D5054BAD
:1006C000D86803E08020000200E0064810BDC04664
:1006D0005C190000480000200008004000127A0069
:1006E000890A0000006CDC0270B50C4C236A0178AA
:1006F000857842780120024092014026B34313439B
:1007000002002A40D2017F308343134303220A4070
:10071000120203490B401343236270BD00080040DE
:10072000FFFCFFFF082803D88000254B1B589F467D
:10073000172044E0234A116A02230B43136200206E
:100740003DE0204A916902230B439361002036E08B
:100750001C4A118A02230B43138200202FE0194AFE
:10076000918A02230B439382002028E016490B68EC
:10077000022213430B60134B9A8419000E32CB688C
:100780001A42FCD0104A91680E4BD96252689A62A4
:1007900000229A8419001032CB681A42FCD00A4B0E
:1007A0001B689BB2074A9384002008E00549442255
:1007B000885C022303438B54002000E00020704734
:1007C00080190000000800404800002030B585B0C6
:1007D000C222D2001A4B9A601A4A53681E218B43D8
:1007E000536001236A4613700024174DE0B2694636
:1007F000A8470134252CF9D103A800244470012511
:1008000085700470114B98470620114B9847114B87
:100810009847114B1C725C729C72DC7201956B469E
:100820005C7006236A461370147254726946002085
:100830000A4B984700200A4B984705B030BDC04688
:1008400000080040004000416D0A0000E906000079
:10085000250700006508000000040040890800002A
:1008600041090000064A916908230B439361012264
:10087000044B1A7019000B781342FCD17047C04624
:1008800000040040000C004070B5060005000C7824
:10089000240204434B78002B02D08023DB021C434C
:1008A0004B7A002B02D080231B031C43486801288D
:1008B00018D9431E184210D1022806D9022300225B
:1008C00001325B009842FBD800E000221202324362
:1008D000150080235B031C4304E00502354380239D
:1008E0009B021C430B7A002B02D080239B031C43EA
:1008F0000F4A53785BB2002BFBDB0E4B98470E4B35
:100900001E700B4A53785BB2002BFBDB084B9D60DB
:100910001A0053785BB2002BFBDB054A5168802339
:100920005B020B401C435460044B984770BDC046AB
:10093000000C0040E9050000080C004029060000FA
:1009400010B504000B4A53785BB2002BFBDB0A4B5B
:1009500098470A4B1C70074A53785BB2002BFBDBAD
:10096000044A5368802149020B435360044B984763
:1009700010BDC046000C0040E9050000040C00401A
:100980002906000070B504001A4A53785BB2002BA8
:10099000FBDB194B9847194B1C70164A53785BB216
:1009A000002BFBDB134E7068C004C00E144B98473D
:1009B0000500124B1C707668F602F60F114B1C7086
:1009C0000C4A53785BB2002BFBDB0A4B9C68240279
:1009D000240C0D4B9847002E07D1012C07D921007C
:1009E00028000A4B9847050001E00134E540280043
:1009F00070BDC046000C0040E9050000040C00403A
:100A000059060000080C004029060000510D0000A6
:100A100010B504000F4B98470F4B1C700F4B5A88B2
:100A20001205100F59880E4A0A405A8059880D4AFB
:100A30000A405A8019008022D2014B881342FCD10F
:100A400006494C880202064B234013434B80064B59
:100A5000984710BDE9050000020C0040000C004062
:100A6000FFF0FFFFFFBFFFFF2906000010B50C7865
:100A700024020443024B9847A4B2024B5C8010BD91
:100A8000110A0000000C004010B50400064B984706
:100A9000064B1C70064B5C882405240F054B9847B9
:100AA0002000054B984710BDE9050000020C0040EE
:100AB000000C0040290600008509000030B5D378FD
:100AC000002B1ED11378802B04D01B0680246402D7
:100AD000234300E0002354780225AC430AD19478E4
:100AE000002C03D18024A402234302E0C024E402AA
:100AF000234341605478013C012C12D8184C234008
:100B00000FE041600B041B0CA024E4052343836227
:100B10000B0CD024240623438362D378002B18D0F7
:100B20001CE00C04240CA025ED052C431C4384621E
:100B30000C0CD0252D062C431C438462D478002C49
:100B40000CD15B0305D59378012B01D1816100E0C5
:100B500041615378013B012B00D8816030BDC04614
:100B6000FFFFFBFF10B503000A00C10900200029A8
:100B700004D15809C00105498C4660441F210B402F
:100B80001E399940024B984710BDC04600440041B1
:100B9000BD0A00007047C04610B5054B9847054B8D
:100BA0009847054B9847054B9847054B984710BD0C
:100BB000CD070000E5050000950B0000950B000037
:100BC000950B0000FEE7C04670B52E4B2E4A9A42A8
:100BD00003D02E4B2B4A9A4204D32D4B2D4A9A42D6
:100BE00010D31EE02C4A294B03339B1A9B08013378
:100BF0009B000022234824498C58845004329A4296
:100C0000FAD1EAE7254A224B03339B1A9B080133AA
:100C10009B0000221F4800211418216004329A42D0
:100C2000FAD11F4AFF211F4B8B439360FD3990235C
:100C30005B001D4AD1501D48C3780324A343022200
:100C40001343C370C3780C26B34308210B43C3700E
:100C5000174B987B3025A843050020202843987324
:100C6000987BB04301439973997BA1430A439A73DC
:100C7000104A516880230B4353600F4B98470F4B2A
:100C80009847FEE700000020DC1900000C0000205F
:100C9000600000200C000020040000201000002054
:100CA00000ED00E000000000007000410050004135
:100CB000004800410040004111190000C10C000033
:100CC000F8B54F464646C0B4134B9847134B984768
:100CD000134B98471420134B9847134B9847802089
:100CE000124DA8471248134CA047C020A8471248ED
:100CF000A047124D124C0B4B9946124B9846124F7F
:100D0000FA20C8476E42641B2000C047B8470F4B0B
:100D100098473500F4E7C046990B0000C90400006D
:100D2000290100003505000095040000750200004F
:100D3000A41900001D040000AC190000A0860100E9
:100D400080F93703B91500001501000039020000D1
:100D5000002243088B4274D303098B425FD3030AFA
:100D60008B4244D3030B8B4228D3030C8B420DD30D
:100D7000FF22090212BA030C8B4202D3121209029B
:100D800065D0030B8B4219D300E0090AC30B8B42D9
:100D900001D3CB03C01A5241830B8B4201D38B0387
:100DA000C01A5241430B8B4201D34B03C01A52412C
:100DB000030B8B4201D30B03C01A5241C30A8B426F
:100DC00001D3CB02C01A5241830A8B4201D38B025A
:100DD000C01A5241430A8B4201D34B02C01A5241FE
:100DE000030A8B4201D30B02C01A5241CDD2C30970
:100DF0008B4201D3CB01C01A524183098B4201D3EC
:100E00008B01C01A524143098B4201D34B01C01AD6
:100E1000524103098B4201D30B01C01A5241C3084E
:100E20008B4201D3CB00C01A524183088B4201D3BD
:100E30008B00C01A524143088B4201D34B00C01AA9
:100E40005241411A00D20146524110467047FFE715
:100E500001B5002000F006F802BDC0460029F7D019
:100E600076E770477047C04670B500220C4B04000F
:100E70000D0000F017FC002804D12000290000F02C
:100E800065FB70BD064B00222000290000F00AF827
:100E900000F05CFB80231B069C466044F1E7C046E3
:100EA0000000E041F0B557464E464546E0B40E001E
:100EB0001100F20F9246C500420F18033703740069
:100EC000400A4E0F7F0A3043CF4E17435A00640D3D
:100ED000520DDB0FC900B24200D1E5E0012673409C
:100EE000A61AB446534500D1AFE0002E00DC0DE158
:100EF000002A3AD103000B4300D0E4E06B0709D08D
:100F00000F232B40042B05D02B1DAB42AD416D426E
:100F10007F191D003B0200D488E0BB4B01349C428A
:100F200000D110E13A00B94B51461A400123500755
:100F3000ED08520264050543120B640D0B400021BD
:100F4000280012030D0D120B64052D0515436208D0
:100F5000AF4CDB072C401443640064081C432100A1
:100F60001CBC90469946A246F0BDA74B9C42C5D0FA
:100F700080231B0418436346382B00DDFDE01F2B44
:100F800000DD30E1624620239B1A02009A4066464B
:100F900090460A009940F24046464B1E9941324322
:100FA000114363460200DA40691A8D429B410D00ED
:100FB000BA1A5B42D71A3B0235D57A02530A9846D1
:100FC0004346002B00D1C4E0404600F075FB03000F
:100FD000083B1F2B00DDC5E020222900D21A47461E
:100FE000D1409F400A009D403A439C4200DDC0E052
:100FF0001C1B631C1F2B00DDE4E0202114002800D3
:10100000C91AD8408C408D400443DA40681E85419F
:1010100017002543002471E7424663461A4300D176
:101020004CE2674645466B0700D069E7012351460D
:101030007807ED08FA080B40054373498C4238D015
:1010400012036405120B640D79E7002E00DC9AE0B0
:10105000002A47D06C4A944200D14FE78022120404
:1010600010436246382A00DC08E10143481E8141F2
:101070000022C9B24919D219A942BF410D007F42CD
:10108000BF183A0200D442E15F4A0134944200D1D1
:101090004EE101205D4A69083A4028400843D507DF
:1010A000054357089A4629E706000E4300D017E784
:1010B00014E72900114300D1F9E1802109030A4313
:1010C0001203120B3BE701235B429846C44463467C
:1010D000002B72D1691A8D429B413F1A5B42FF1A65
:1010E0000D0068E702000A4300D107E701225242DF
:1010F0009046C4446246002A00D0E6E06918A9423E
:10110000B6413F187642F7190D00BAE7002E00D01D
:1011100080E0621C5205520D012A00DCF9E06A1AD7
:1011200091464D45B6413A1A7642921B90461202BC
:1011300000D499E04D1BA9428941C71B49427A1A44
:1011400090469A463CE75246012300251340002270
:10115000F5E6280000F0B0FA20300300083B1F2B12
:1011600000DC39E72A002838824000259C4200DC58
:101170003EE7264FE41A1740C0E60143481E81416E
:101180000022C9B210E7002E00D0F1E0621C9446A4
:101190005205520D012A00DCA0E01B4A944500D103
:1011A000C5E06918A94292413F185242D219490834
:1011B000D5070D4357086446A0E6134B9C4200D068
:1011C000D9E69BE611001F3CE1400C00202B00D12A
:1011D00080E04021CB1A9A4015436A1E95410027B2
:1011E000254300241FE763460200203BDA406346A4
:1011F000202B71D0402366469B1B98400143481E1C
:10120000814111430022CFE6FF070000FFFF7FFF6F
:10121000FFFF0F80002C48D0CA4CA24200D1A2E0B0
:101220007442A1468024240427434C46382C00DD18
:10123000DBE01F2C00DD44E14E462024A41B3E00D1
:10124000A640A246B0464C462E00E640B44646466E
:10125000644626435446A5406C1EA54134002C43E9
:101260004D46EF400D1B28E04A4643464D461A4383
:1012700000D0A5E6002300240025DEE61F2A5ADC64
:1012800066462022921B060096409146B046624672
:101290000E00D640424616434A4691404A1E9141AE
:1012A000020060463143C240E4E63C002C435AD081
:1012B000F443A146002C52D14D1BA9428941C71BC2
:1012C00049427F1A14009A4675E69E4A944200D01D
:1012D000C7E613E600227FE700208FE7002C00D04E
:1012E000C8E03B002B4300D10FE103000B4300D1CA
:1012F00004E66918A9429B413F185B42DF193B0293
:1013000000D41AE1904B0D001F406446F6E59A4662
:1013100089E63A002A43002C5CD1002A75D10200EC
:101320000A4300D1CAE007000D009A46E6E564468C
:101330000022002581E662460600203AD640624639
:10134000B046202A00D1B7E040226646921B90406A
:1013500001434246481E8141114300228AE6794CEE
:10136000A24200D061E707000D0014009A46C5E5CF
:10137000002C41D13C002C4378D0F443A146002CF2
:1013800020D0704CA24271D04C46382C00DDB2E027
:101390001F2C00DDBCE02026341BA2463C00564634
:1013A000B4404E46A0462C00F440A446444666464F
:1013B0003443A4465446A54064466E1EB5412543B9
:1013C0004C46E7406D188D4289413F184942CF197C
:1013D000140056E6002A2FD102000A4300D184E00F
:1013E00007000D009A46574C88E53D436F1EBD41EE
:1013F000ECB200270D1B60E7524CA24236D074427B
:1014000080263604A1463743BEE702000A4300D1D6
:1014100074E56A1A90464545B6413A1A7642921BDF
:101420009446120200D4F7E54D1BA9428941C71B1F
:1014300049427F1A9A4661E502000A433AD0ED0814
:101440007C072C438025FA082D032A4208D0C708C0
:101450002F4205D145072C003A009A46C9080C4393
:10146000670FD200E5001743364C47E507000D0033
:10147000140043E53A002A4343D002000A4319D03E
:10148000ED087C072C438025FA082D032A4207D05B
:10149000C6082E4204D147073C003200C9080C435D
:1014A000D700620FE50017439A46264C26E5002236
:1014B000002544E5234C21E5002049E700230025D1
:1014C000BBE54C463E00203CE6404C46B446202C52
:1014D00031D040244E46A61BB7403D436C1EA5416B
:1014E00064462C4300270D1BE7E6802200231203ED
:1014F000144C0025A1E53D436F1EBD410027EDB210
:1015000060E707000D000F4CF8E407000D00F5E45C
:101510004E463C00203EF440A0464C46202C0ED0C7
:1015200040244E46A41BA7403D436F1EBD41444688
:101530000027254346E70027CFE70D0073E5002786
:10154000F2E7C046FF070000FFFF7FFF0B0330B547
:10155000134D1A0B4B005B0DC90F0024AB4211DD7C
:10156000104CA34210DC8024640322430E4CE41A86
:101570001F2C0CDD0D48C31ADA4013005C42002911
:1015800000D11C00200030BD094BCC18FAE7E04028
:10159000084CA44663449A4013000343EEE7C04658
:1015A000FE0300001D0400003304000013040000CB
:1015B000FFFFFF7FEDFBFFFF70B5002830D0C317A2
:1015C000C4185C40C50F200000F076F8174B184A8D
:1015D0001B1AD21A1F2A18DD164AD21A944000226A
:1015E00024035B05240B5B0D0021100024030A0D6E
:1015F0001205240B1443104A1B0514401C436400BD
:10160000ED0764082C43210070BD210091400A00C1
:101610000B21081AC4405B052403240B5B0DE3E790
:101620000025002300240022DEE7C0461E0400003F
:101630003304000013040000FFFF0F808446101CD9
:1016400062468C46191C634600E0C0461FB500F098
:10165000F5F8002801D40021C8421FBD10B500F0E4
:1016600049F84042013010BD10B500F0E7F80028FD
:1016700001DB002010BD012010BDC04610B500F0F8
:10168000DDF8002801DD002010BD012010BDC0469E
:1016900010B500F06FF8002801DC002010BD01201B
:1016A00010BDC04610B500F065F8002801DA002032
:1016B00010BD012010BDC0461C2101231B0498420F
:1016C00001D3000C10391B0A984201D3000A0839D3
:1016D0001B09984201D30009043902A2105C40188A
:1016E0007047C0460403020201010101000000002E
:1016F00000000000F0B55F4656464D464446F0B443
:101700001F035C00DB0F9A46194B0E034D00C90FF7
:101710008046360B6D0D8B4691463F0B640D9D4206
:1017200019D0134B9C421BD00123A54206D01800B0
:101730003CBC90469946A246AB46F0BDBE42F6D1AF
:10174000C845F4D1D34510D0002DF0D1304303006B
:101750005A1E9341EBE7310001230143E7D1E0E753
:101760003A430123002AE2D1DEE70023DFE7C04647
:10177000FF070000F0B55F46444656464D46F0B4BC
:101780001F033C0B2C4F0E034D00A3465C00844608
:10179000360B6D0DC90F9046640DDB0FBD422BD08B
:1017A000254FBC422ED0002D0ED13043070081467C
:1017B00078427841002C17D15F463A4314D14B460A
:1017C0000020002B0AD006E0002C02D1584602432C
:1017D00001D099421AD00123484218433CBC90469C
:1017E0009946A246AB46F0BD0028F2D05842584177
:1017F000012240421043F1E737000743D0D00220D6
:101800004042EBE75F461743CDD0F8E7A542E2DC64
:1018100005DB5E45DFD808D000205E45DED24842B9
:101820004841012340421843D8E7C445D3D800209B
:10183000C445F4D3D2E7C046FF070000F0B55F46C9
:101840004D4644465646F0B41C03240BA4462F4C88
:101850000F034D005E00C90F80463F0B6D0D8B4698
:101860009146760DDB0FA54220D0284CA64222D00F
:10187000002D12D1384344424441002E20D0002C88
:101880000DD05C42634101245B421C4320003CBC00
:1018900090469946A246AB46F0BD002E17D05B4558
:1018A00019D05B465C4201231C43EFE73900022458
:1018B0000143EBD1D9E7614602241143E6D1D7E7D2
:1018C00061460A43DBD100240028DFD0E9E7614606
:1018D0000A43E4D1E5E7B54203DD01225C4214434B
:1018E000D4E7B542CDDB6745DBD809D00024674596
:1018F000CCD259464C426141012449420C43C5E7D0
:10190000C845CED80024C845F3D3BFE7FF07000081
:101910000E4B70B500251E000D4CE41AA410A54214
:1019200004D0AB00F35898470135F8E700F046F8CB
:10193000084B00251E00084CE41AA410A54204D050
:10194000AB00F35898470135F8E770BDC81900009F
:10195000C8190000C8190000CC1900006A06000070
:101960006606000066060000C4060000C40600000B
:101970007E0600007006000084060000B20600002B
:10198000500700003007000030070000BC070000CF
:10199000420700005E070000340700006C070000EB
:1019A000AC07000048454C4C4F000000776F726C4C
:1019B000642020203078324100000000F8B5C04695
:1019C000F8BC08BC9E467047DD000000F8B5C04674
:0C19D000F8BC08BC9E467047B500000043
:0C19DC0008000000401F00000100000097
:0400000300000BC925
:00000001FF
